{
  "_format": "hh-sol-artifact-1",
  "contractName": "CrowdFunding",
  "sourceName": "contracts/CrowdFunding.sol",
  "abi": [
    {
      "inputs": [
        {
          "internalType": "uint256",
          "name": "_target",
          "type": "uint256"
        }
      ],
      "stateMutability": "nonpayable",
      "type": "constructor"
    },
    {
      "inputs": [],
      "name": "Time_call",
      "outputs": [
        {
          "internalType": "uint256",
          "name": "",
          "type": "uint256"
        }
      ],
      "stateMutability": "view",
      "type": "function"
    },
    {
      "inputs": [
        {
          "internalType": "uint256",
          "name": "_requestIndex",
          "type": "uint256"
        }
      ],
      "name": "completeRequest",
      "outputs": [],
      "stateMutability": "nonpayable",
      "type": "function"
    },
    {
      "inputs": [],
      "name": "completedRequests",
      "outputs": [
        {
          "internalType": "uint256",
          "name": "",
          "type": "uint256"
        }
      ],
      "stateMutability": "view",
      "type": "function"
    },
    {
      "inputs": [
        {
          "internalType": "address",
          "name": "",
          "type": "address"
        }
      ],
      "name": "contributers",
      "outputs": [
        {
          "internalType": "uint256",
          "name": "",
          "type": "uint256"
        }
      ],
      "stateMutability": "view",
      "type": "function"
    },
    {
      "inputs": [
        {
          "internalType": "string",
          "name": "_discription",
          "type": "string"
        },
        {
          "internalType": "address payable",
          "name": "_recipient",
          "type": "address"
        },
        {
          "internalType": "uint256",
          "name": "_value",
          "type": "uint256"
        },
        {
          "internalType": "uint256",
          "name": "_deadline",
          "type": "uint256"
        }
      ],
      "name": "createNewRequest",
      "outputs": [],
      "stateMutability": "nonpayable",
      "type": "function"
    },
    {
      "inputs": [],
      "name": "getCOntractBalance",
      "outputs": [
        {
          "internalType": "uint256",
          "name": "",
          "type": "uint256"
        }
      ],
      "stateMutability": "view",
      "type": "function"
    },
    {
      "inputs": [],
      "name": "manager",
      "outputs": [
        {
          "internalType": "address",
          "name": "",
          "type": "address"
        }
      ],
      "stateMutability": "view",
      "type": "function"
    },
    {
      "inputs": [],
      "name": "minimumContribution",
      "outputs": [
        {
          "internalType": "uint256",
          "name": "",
          "type": "uint256"
        }
      ],
      "stateMutability": "view",
      "type": "function"
    },
    {
      "inputs": [],
      "name": "noOfContributors",
      "outputs": [
        {
          "internalType": "uint256",
          "name": "",
          "type": "uint256"
        }
      ],
      "stateMutability": "view",
      "type": "function"
    },
    {
      "inputs": [],
      "name": "numRequests",
      "outputs": [
        {
          "internalType": "uint256",
          "name": "",
          "type": "uint256"
        }
      ],
      "stateMutability": "view",
      "type": "function"
    },
    {
      "inputs": [],
      "name": "raisedAmount",
      "outputs": [
        {
          "internalType": "uint256",
          "name": "",
          "type": "uint256"
        }
      ],
      "stateMutability": "view",
      "type": "function"
    },
    {
      "inputs": [
        {
          "internalType": "uint256",
          "name": "",
          "type": "uint256"
        }
      ],
      "name": "requests",
      "outputs": [
        {
          "internalType": "string",
          "name": "discription",
          "type": "string"
        },
        {
          "internalType": "address payable",
          "name": "recipient",
          "type": "address"
        },
        {
          "internalType": "uint256",
          "name": "value",
          "type": "uint256"
        },
        {
          "internalType": "uint256",
          "name": "deadline",
          "type": "uint256"
        },
        {
          "internalType": "bool",
          "name": "completed",
          "type": "bool"
        },
        {
          "internalType": "uint256",
          "name": "noOfVoters",
          "type": "uint256"
        },
        {
          "internalType": "bool",
          "name": "readyToApprove",
          "type": "bool"
        }
      ],
      "stateMutability": "view",
      "type": "function"
    },
    {
      "inputs": [],
      "name": "sendETH",
      "outputs": [],
      "stateMutability": "payable",
      "type": "function"
    },
    {
      "inputs": [],
      "name": "target",
      "outputs": [
        {
          "internalType": "uint256",
          "name": "",
          "type": "uint256"
        }
      ],
      "stateMutability": "view",
      "type": "function"
    },
    {
      "inputs": [
        {
          "internalType": "uint256",
          "name": "_requestIndex",
          "type": "uint256"
        }
      ],
      "name": "voteRequest",
      "outputs": [],
      "stateMutability": "nonpayable",
      "type": "function"
    }
  ],
  "bytecode": "0x60806040523480156200001157600080fd5b506040516200197b3803806200197b8339818101604052810190620000379190620000a5565b33600160006101000a81548173ffffffffffffffffffffffffffffffffffffffff021916908373ffffffffffffffffffffffffffffffffffffffff1602179055508060028190555060646003819055505062000100565b6000815190506200009f81620000e6565b92915050565b600060208284031215620000be57620000bd620000e1565b5b6000620000ce848285016200008e565b91505092915050565b6000819050919050565b600080fd5b620000f181620000d7565b8114620000fd57600080fd5b50565b61186b80620001106000396000f3fe6080604052600436106100e85760003560e01c806378510e181161008a578063a738c5bf11610059578063a738c5bf146102cb578063c59ee1dc146102f6578063cc1e035914610321578063d4b839921461034a576100e8565b806378510e181461020957806381d12c5814610232578063937e09b1146102755780639fb42b1f146102a0576100e8565b806334b66460116100c657806334b664601461014d578063481c6a751461018a5780634cb6f4a5146101b55780634e260f6f146101de576100e8565b806303261030146100ed57806308f438f7146101185780631d16d9a014610143575b600080fd5b3480156100f957600080fd5b50610102610375565b60405161010f9190611204565b60405180910390f35b34801561012457600080fd5b5061012d61037d565b60405161013a9190611204565b60405180910390f35b61014b610383565b005b34801561015957600080fd5b50610174600480360381019061016f9190610dc6565b6104de565b6040516101819190611204565b60405180910390f35b34801561019657600080fd5b5061019f6104f6565b6040516101ac9190611053565b60405180910390f35b3480156101c157600080fd5b506101dc60048036038101906101d79190610e76565b61051c565b005b3480156101ea57600080fd5b506101f3610745565b6040516102009190611204565b60405180910390f35b34801561021557600080fd5b50610230600480360381019061022b9190610df3565b61074b565b005b34801561023e57600080fd5b5061025960048036038101906102549190610e76565b6108ba565b60405161026c979695949392919061106e565b60405180910390f35b34801561028157600080fd5b5061028a6109be565b6040516102979190611204565b60405180910390f35b3480156102ac57600080fd5b506102b56109c4565b6040516102c29190611204565b60405180910390f35b3480156102d757600080fd5b506102e06109ca565b6040516102ed9190611204565b60405180910390f35b34801561030257600080fd5b5061030b6109d2565b6040516103189190611204565b60405180910390f35b34801561032d57600080fd5b5061034860048036038101906103439190610e76565b6109d8565b005b34801561035657600080fd5b5061035f610c6e565b60405161036c9190611204565b60405180910390f35b600042905090565b60065481565b6003543410156103c8576040517f08c379a00000000000000000000000000000000000000000000000000000000081526004016103bf90611144565b60405180910390fd5b6002546004541061040e576040517f08c379a0000000000000000000000000000000000000000000000000000000008152600401610405906111e4565b60405180910390fd5b60008060003373ffffffffffffffffffffffffffffffffffffffff1673ffffffffffffffffffffffffffffffffffffffff16815260200190815260200160002054141561046e57600560008154809291906104689061144b565b91905055505b346000803373ffffffffffffffffffffffffffffffffffffffff1673ffffffffffffffffffffffffffffffffffffffff16815260200190815260200160002060008282546104bc9190611291565b9250508190555034600460008282546104d59190611291565b92505081905550565b60006020528060005260406000206000915090505481565b600160009054906101000a900473ffffffffffffffffffffffffffffffffffffffff1681565b60008060003373ffffffffffffffffffffffffffffffffffffffff1673ffffffffffffffffffffffffffffffffffffffff168152602001908152602001600020541161059d576040517f08c379a000000000000000000000000000000000000000000000000000000000815260040161059490611184565b60405180910390fd5b60006007600083815260200190815260200160002090506105bc610375565b816003015411610601576040517f08c379a00000000000000000000000000000000000000000000000000000000081526004016105f890611124565b60405180910390fd5b600015158160060160003373ffffffffffffffffffffffffffffffffffffffff1673ffffffffffffffffffffffffffffffffffffffff16815260200190815260200160002060009054906101000a900460ff16151514610696576040517f08c379a000000000000000000000000000000000000000000000000000000000815260040161068d906111c4565b60405180910390fd5b60018160060160003373ffffffffffffffffffffffffffffffffffffffff1673ffffffffffffffffffffffffffffffffffffffff16815260200190815260200160002060006101000a81548160ff0219169083151502179055508060050160008154809291906107059061144b565b9190505550600260055461071991906112e7565b8160050154106107415760018160070160006101000a81548160ff0219169083151502179055505b5050565b60055481565b600160009054906101000a900473ffffffffffffffffffffffffffffffffffffffff1673ffffffffffffffffffffffffffffffffffffffff163373ffffffffffffffffffffffffffffffffffffffff16146107db576040517f08c379a00000000000000000000000000000000000000000000000000000000081526004016107d290611164565b60405180910390fd5b600060076000600854815260200190815260200160002090508481600001908051906020019061080c929190610c74565b50838160010160006101000a81548173ffffffffffffffffffffffffffffffffffffffff021916908373ffffffffffffffffffffffffffffffffffffffff16021790555082816002018190555081610862610375565b61086c9190611291565b816003018190555060008160040160006101000a81548160ff02191690831515021790555060008160050181905550600860008154809291906108ae9061144b565b91905055505050505050565b60076020528060005260406000206000915090508060000180546108dd906113e8565b80601f0160208091040260200160405190810160405280929190818152602001828054610909906113e8565b80156109565780601f1061092b57610100808354040283529160200191610956565b820191906000526020600020905b81548152906001019060200180831161093957829003601f168201915b5050505050908060010160009054906101000a900473ffffffffffffffffffffffffffffffffffffffff16908060020154908060030154908060040160009054906101000a900460ff16908060050154908060070160009054906101000a900460ff16905087565b60035481565b60085481565b600047905090565b60045481565b600160009054906101000a900473ffffffffffffffffffffffffffffffffffffffff1673ffffffffffffffffffffffffffffffffffffffff163373ffffffffffffffffffffffffffffffffffffffff1614610a68576040517f08c379a0000000000000000000000000000000000000000000000000000000008152600401610a5f90611164565b60405180910390fd5b6000600760008381526020019081526020016000209050806002015460045411610ac7576040517f08c379a0000000000000000000000000000000000000000000000000000000008152600401610abe90611104565b60405180910390fd5b600015158160040160009054906101000a900460ff16151514610b1f576040517f08c379a0000000000000000000000000000000000000000000000000000000008152600401610b16906111a4565b60405180910390fd5b610b27610375565b816003015411610b6c576040517f08c379a0000000000000000000000000000000000000000000000000000000008152600401610b6390611124565b60405180910390fd5b6002600554610b7b91906112e7565b81600501541015610bc1576040517f08c379a0000000000000000000000000000000000000000000000000000000008152600401610bb8906110e4565b60405180910390fd5b8060010160009054906101000a900473ffffffffffffffffffffffffffffffffffffffff1673ffffffffffffffffffffffffffffffffffffffff166108fc82600201549081150290604051600060405180830381858888f19350505050158015610c2f573d6000803e3d6000fd5b50806002015460046000828254610c469190611318565b9250508190555060018160040160006101000a81548160ff0219169083151502179055505050565b60025481565b828054610c80906113e8565b90600052602060002090601f016020900481019282610ca25760008555610ce9565b82601f10610cbb57805160ff1916838001178555610ce9565b82800160010185558215610ce9579182015b82811115610ce8578251825591602001919060010190610ccd565b5b509050610cf69190610cfa565b5090565b5b80821115610d13576000816000905550600101610cfb565b5090565b6000610d2a610d2584611244565b61121f565b905082815260208101848484011115610d4657610d45611555565b5b610d518482856113a6565b509392505050565b600081359050610d68816117f0565b92915050565b600081359050610d7d81611807565b92915050565b600082601f830112610d9857610d97611550565b5b8135610da8848260208601610d17565b91505092915050565b600081359050610dc08161181e565b92915050565b600060208284031215610ddc57610ddb61155f565b5b6000610dea84828501610d59565b91505092915050565b60008060008060808587031215610e0d57610e0c61155f565b5b600085013567ffffffffffffffff811115610e2b57610e2a61155a565b5b610e3787828801610d83565b9450506020610e4887828801610d6e565b9350506040610e5987828801610db1565b9250506060610e6a87828801610db1565b91505092959194509250565b600060208284031215610e8c57610e8b61155f565b5b6000610e9a84828501610db1565b91505092915050565b610eac8161135e565b82525050565b610ebb8161134c565b82525050565b610eca81611370565b82525050565b6000610edb82611275565b610ee58185611280565b9350610ef58185602086016113b5565b610efe81611564565b840191505092915050565b6000610f16604b83611280565b9150610f2182611575565b606082019050919050565b6000610f39603483611280565b9150610f44826115ea565b604082019050919050565b6000610f5c601883611280565b9150610f6782611639565b602082019050919050565b6000610f7f601f83611280565b9150610f8a82611662565b602082019050919050565b6000610fa2602383611280565b9150610fad8261168b565b604082019050919050565b6000610fc5602383611280565b9150610fd0826116da565b604082019050919050565b6000610fe8602e83611280565b9150610ff382611729565b604082019050919050565b600061100b601583611280565b915061101682611778565b602082019050919050565b600061102e602583611280565b9150611039826117a1565b604082019050919050565b61104d8161139c565b82525050565b60006020820190506110686000830184610eb2565b92915050565b600060e0820190508181036000830152611088818a610ed0565b90506110976020830189610ea3565b6110a46040830188611044565b6110b16060830187611044565b6110be6080830186610ec1565b6110cb60a0830185611044565b6110d860c0830184610ec1565b98975050505050505050565b600060208201905081810360008301526110fd81610f09565b9050919050565b6000602082019050818103600083015261111d81610f2c565b9050919050565b6000602082019050818103600083015261113d81610f4f565b9050919050565b6000602082019050818103600083015261115d81610f72565b9050919050565b6000602082019050818103600083015261117d81610f95565b9050919050565b6000602082019050818103600083015261119d81610fb8565b9050919050565b600060208201905081810360008301526111bd81610fdb565b9050919050565b600060208201905081810360008301526111dd81610ffe565b9050919050565b600060208201905081810360008301526111fd81611021565b9050919050565b60006020820190506112196000830184611044565b92915050565b600061122961123a565b9050611235828261141a565b919050565b6000604051905090565b600067ffffffffffffffff82111561125f5761125e611521565b5b61126882611564565b9050602081019050919050565b600081519050919050565b600082825260208201905092915050565b600061129c8261139c565b91506112a78361139c565b9250827fffffffffffffffffffffffffffffffffffffffffffffffffffffffffffffffff038211156112dc576112db611494565b5b828201905092915050565b60006112f28261139c565b91506112fd8361139c565b92508261130d5761130c6114c3565b5b828204905092915050565b60006113238261139c565b915061132e8361139c565b92508282101561134157611340611494565b5b828203905092915050565b60006113578261137c565b9050919050565b60006113698261137c565b9050919050565b60008115159050919050565b600073ffffffffffffffffffffffffffffffffffffffff82169050919050565b6000819050919050565b82818337600083830152505050565b60005b838110156113d35780820151818401526020810190506113b8565b838111156113e2576000848401525b50505050565b6000600282049050600182168061140057607f821691505b60208210811415611414576114136114f2565b5b50919050565b61142382611564565b810181811067ffffffffffffffff8211171561144257611441611521565b5b80604052505050565b60006114568261139c565b91507fffffffffffffffffffffffffffffffffffffffffffffffffffffffffffffffff82141561148957611488611494565b5b600182019050919050565b7f4e487b7100000000000000000000000000000000000000000000000000000000600052601160045260246000fd5b7f4e487b7100000000000000000000000000000000000000000000000000000000600052601260045260246000fd5b7f4e487b7100000000000000000000000000000000000000000000000000000000600052602260045260246000fd5b7f4e487b7100000000000000000000000000000000000000000000000000000000600052604160045260246000fd5b600080fd5b600080fd5b600080fd5b600080fd5b6000601f19601f8301169050919050565b7f4d616a6f7269747920636f6e7472696275746f727320686176656e277420766f60008201527f74656420666f722074686520726571756573742c2068656e63652063616e277460208201527f2073656e642066756e6473000000000000000000000000000000000000000000604082015250565b7f5261697365642066756e647320617265206e6f7420656e6f75676820746f207060008201527f726f63657373207468697320726571756573742e000000000000000000000000602082015250565b7f54686520726571756573742069732074696d65642d6f75740000000000000000600082015250565b7f4d696e696d756d20636f6e747269627574696f6e206973203130302077656900600082015250565b7f4f6e6c79206d616e616765722063616e2063616c6c20746869732066756e637460008201527f696f6e0000000000000000000000000000000000000000000000000000000000602082015250565b7f596f752063616e277420766f746520776974686f757420636f6e74726962757460008201527f696e670000000000000000000000000000000000000000000000000000000000602082015250565b7f5265717565737420697320636f6d706c657465642c2066756e647320616c726560008201527f616479207472616e736665726564000000000000000000000000000000000000602082015250565b7f596f75206861766520616c7265647920766f7465640000000000000000000000600082015250565b7f5468657265206973206e6f206e656564206f662066756e64696e67207269676860008201527f74206e6f77000000000000000000000000000000000000000000000000000000602082015250565b6117f98161134c565b811461180457600080fd5b50565b6118108161135e565b811461181b57600080fd5b50565b6118278161139c565b811461183257600080fd5b5056fea2646970667358221220ac8c1f9c6f454c4a3dba6a9825111bffc0ae28aea84eb491c60a43073c1b38fd64736f6c63430008050033",
  "linkReferences": {},
  "deployedLinkReferences": {}
}